:03000000020050AB
:1000500075A000D2A3753A00753B00753C0031E7EE
:1000600074805152900504516E74C0515290051025
:10007000516E518131DC7480515290051F516E5187
:1000800081C2A131DC74805152900530516E3184AF
:1000900031A531B8E53AB4011C31DC74805152907D
:1000A000053F516E74C0515290054C516ED2A1C2A1
:1000B000A05181801231DC74805152900557516EED
:1000C000D2A0518102008131DC74805152900565CB
:1000D000516E74C05152900572516E518131DC7471
:1000E00080515290057A516E74C0515290058351DF
:1000F0006E518131DC74805152900591516E74C003
:10010000515290059C516E3192C39430F53C24308D
:10011000513A5181E53CB401028016B402028011CB
:10012000B40302800CB404028007D2A2C2A1020070
:10013000C7D2A1C2A231DC748051529005AB516E7E
:1001400031423080FD314822D2A65181C2A631DC35
:10015000748051529005B8516E74C051529005C5CB
:10016000516ED2A4C2A55181C2A4D2A55181C2A50B
:100170008000C2A231DC748051529005D3516E517F
:10018000810200817E0478303192C39430F608DE1B
:10019000F722759850758920758DFDD28E3098FDA7
:1001A000E599C2982274C0515278307E04E624301A
:1001B000513A08DEF8518122900500C3E493B5302E
:1001C00018A3740093B53111A3740093B5320AA338
:1001D000740093B53303753A012280FE74015152C5
:1001E0007A0A517CDAFC22C293C297C296D295C297
:1001F00094D292C292517CD292C292D297C296C2AB
:1002000095C294D292C292517CC297C296C295C2B4
:1002100094D292C292D297D296D295D294D292C2CE
:1002200092517CC297C296C295C294D292C292D287
:1002300096D295D292C292517C22C0E0C0F0D29365
:10024000F5F05162517CE5F0C45162517CD0F0D0A0
:10025000E022C293F5F05162517CE5F0C451625145
:100260007C2254F053900F4290D292C29222C0E06E
:10027000E4936005513AA34170D0E0227F32DFFE63
:10028000227C237B697AAADAFEDBFADCF6227FD2B3
:03029000DFFE226C
:10050000010203042020486F6C612021212120007A
:100510002020204E495452204A616E6174610020AF
:1005200056454E44494E47204D414348494E4500AB
:10053000454E54455220594F55522049443A0020C7
:1005400020494420434F5252454354002020205715
:10055000454C434F4D450020494E434F5252454371
:1005600054204944002020204D41494E204D454E05
:100570005500312E4C4159532000322E4D554E43DB
:10058000482000332E4449415259204D494C4B20BC
:1005900000342E4B4954204B4154200043484F4FC8
:1005A000534520594F5552533A2000494E53455216
:1005B0005420434F494E3A00434F4C4C454354203E
:1005C000594F55520020202043484F434F4C41542F
:1005D0004520002020205448414E4B20594F5521A2
:0205E0002000F9
:00000001FF
